:100000000C942C000C9454000C9454000C94540048
:100010000C9454000C9454000C9454000C94540010
:100020000C9454000C9454000C9454000C94540000
:100030000C9454000C9454000C9454000C945400F0
:100040000C943C020C9454000C9454000C945400F6
:100050000C94540062026A0211241FBECFE5D8E05E
:10006000DEBFCDBF10E0A0E6B0E0E4E0F5E002C006
:1000700005900D92A636B107D9F720E0A6E6B0E0CC
:1000800001C01D92AF36B207E1F710E0CBE2D0E03D
:1000900004C02197FE010E946F02CA32D107C9F73E
:1000A0000E9413020C9475020C940000FC016683FC
:1000B0004783208711821082138212821582148254
:1000C00087B18F7387B986B1887F86B9329A87B135
:1000D000806C87B9339A379A789487B1807E87B9D4
:1000E00097B18681892B87B9369A08950895FC01C6
:1000F00027B12F7130E0868190E02817390771F41D
:1001000084B125B190E0922B9183808387B1807E6A
:1001100087B997B18781892B87B92BC027B12F71F8
:1001200030E0878190E02817390771F484B125B158
:1001300090E0922B9383828387B1807E87B997B1B9
:100140008085892B87B915C087B18F7190E0208594
:1001500030E08217930769F484B125B190E0922BC7
:100160009583848387B1807E87B997B18681892BF7
:1001700087B9369A0895662309F443C0883068F435
:100180004BB321E030E0B90102C0660F771F8A95BA
:10019000E2F7CB01842B8BBB089598EF980F983032
:1001A00068F448B321E030E0B90102C0660F771F60
:1001B0009A95E2F7CB01842B88BB089590EF980FB6
:1001C000983068F445B321E030E0B90102C0660F11
:1001D000771F9A95E2F7CB01842B85BB089598EEA3
:1001E000980F983008F052C042B321E030E0B901D6
:1001F00002C0660F771F9A95E2F7CB01842B82BB72
:100200000895883070F44BB321E030E0B90102C0AA
:10021000660F771F8A95E2F7CB01809584238BBB0D
:10022000089598EF980F983070F448B321E030E0CB
:10023000B90102C0660F771F9A95E2F7CB0180954E
:10024000842388BB089590EF980F983070F445B3DD
:1002500021E030E0B90102C0660F771F9A95E2F7FE
:10026000CB018095842385BB089598EE980F983034
:1002700068F442B321E030E0B90102C0660F771F95
:100280009A95E2F7CB018095842382BB089566237B
:1002900009F443C0883068F44AB321E030E0B90182
:1002A00002C0660F771F8A95E2F7CB01842B8ABBC9
:1002B000089598EF980F983068F447B321E030E044
:1002C000B90102C0660F771F9A95E2F7CB01842B24
:1002D00087BB089590EF980F983068F444B321E0FD
:1002E00030E0B90102C0660F771F9A95E2F7CB01A3
:1002F000842B84BB089598EE980F983008F052C074
:1003000041B321E030E0B90102C0660F771F9A9532
:10031000E2F7CB01842B81BB0895883070F44AB397
:1003200021E030E0B90102C0660F771F8A95E2F73D
:10033000CB01809584238ABB089598EF980F98305D
:1003400070F447B321E030E0B90102C0660F771FB7
:100350009A95E2F7CB018095842387BB089590EFAF
:10036000980F983070F444B321E030E0B90102C036
:10037000660F771F9A95E2F7CB018095842384BBA3
:10038000089598EE980F983068F441B321E030E07A
:10039000B90102C0660F771F9A95E2F7CB018095ED
:1003A000842381BB0895CF93DF93EC0161E08B81BF
:1003B0000E94470160E08B810E94BB00DF91CF91DA
:1003C000089524E630E0FC013183208363831282A8
:1003D0000E94D3010895CF93DF93EC0161E08B81FC
:1003E0000E94BB0081E08A83DF91CF910895CF9373
:1003F000DF93EC0160E08B810E94BB001A82DF91E9
:10040000CF910895CF93DF93EC018A81811104C0CD
:10041000CE010E94EB0103C0CE010E94F7018A8148
:10042000DF91CF910895CF93DF9300D000D0CDB767
:10043000DEB76CE1CE0101960E94E10106E610E014
:10044000E12CF12CCE0101960E940202F80180817C
:10045000918118161906B4F78E2D9F2DE9EFF0E063
:100460003197F1F700C000000196F8012081318139
:10047000821793079CF3E6CF1F920F920FB60F924D
:1004800011242F933F934F935F936F937F938F9399
:100490009F93AF93BF93EF93FF9386E690E00E9404
:1004A0007700FF91EF91BF91AF919F918F917F91D5
:1004B0006F915F914F913F912F910F900FBE0F90D1
:1004C0001F90189522E041E060E086E690E00E94EF
:1004D0005600089586E690E00E9476000895EE0F9B
:1004E000FF1F0590F491E02D099410E0CBE2D0E0DD
:1004F00004C0FE010E946F022196CC32D107C9F7D9
:04050000F894FFCF9D
:0605040000000000D3011D
:00000001FF
