:100000000C942C000C9454000C9454000C94540048
:100010000C9454000C9454000C9454000C94540010
:100020000C9454000C9454000C9454000C94540000
:100030000C9454000C9454000C9454000C945400F0
:100040000C940A040C9454000C9454000C94540026
:100050000C9454005C047C0411241FBECFE5D8E04E
:10006000DEBFCDBF10E0A0E6B0E0E0E8FEE002C0F9
:1000700005900D92A837B107D9F720E0A8E7B0E0C6
:1000800001C01D92AD39B207E1F710E0CBE2D0E03C
:1000900004C02197FE010E942D07CA32D107C9F77B
:1000A0000E94F3030C9433070C94000027B1207EC8
:1000B00027B927B1FC018481822B87B9089527B124
:1000C0002F7130E0FC01448150E081E024173507B6
:1000D00009F080E0089597B19F7397B996B1987F22
:1000E00096B996B1692B66B927B130E4839FC001F8
:1000F0001124822B87B9339A379A78940895FC019A
:1001000084E690E09183808364831382128264E0AA
:1001100083E00C946B00CF93DF93EC010E945F00AF
:10012000882341F024B185B130E0382B3B832A830A
:10013000C90102C08A819B81DF91CF910895DC01C2
:10014000ED91FC910190F081E02D0995369A08958A
:1001500036980895CF93DF93EC0184E690E099837D
:100160008883CE010E945F00882341F087B1807EA2
:1001700087B9CE01DF91CF910C94A800DF91CF9188
:100180000895FC01768365830895CF93DF93EC0196
:100190000E948B00ED81FE816C818A819B81DF91C1
:1001A000CF910994662309F43FC0883060F44BB3C3
:1001B00021E030E0B90102C0660F771F8A95E2F7AF
:1001C000CB01842B3FC098EF980F983060F448B370
:1001D00021E030E0B90102C0660F771F9A95E2F77F
:1001E000CB01842B41C090EF980F983060F445B359
:1001F00021E030E0B90102C0660F771F9A95E2F75F
:10020000CB01842B43C098EE980F983008F051C072
:1002100042B321E030E0B90102C0660F771F9A9522
:10022000E2F7CB01842B44C0883070F44BB321E05B
:1002300030E0B90102C0660F771F8A95E2F7CB0163
:10024000809584238BBB089598EF980F983070F4B5
:1002500048B321E030E0B90102C0660F771F9A95DC
:10026000E2F7CB018095842388BB089590EF980F27
:10027000983070F445B321E030E0B90102C0660F58
:10028000771F9A95E2F7CB018095842385BB08956B
:1002900098EE980F983068F442B321E030E0B9014D
:1002A00002C0660F771F9A95E2F7CB0180958423F1
:1002B00082BB0895662309F43FC0883060F44AB3D6
:1002C00021E030E0B90102C0660F771F8A95E2F79E
:1002D000CB01842B3FC098EF980F983060F447B360
:1002E00021E030E0B90102C0660F771F9A95E2F76E
:1002F000CB01842B41C090EF980F983060F444B349
:1003000021E030E0B90102C0660F771F9A95E2F74D
:10031000CB01842B43C098EE980F983008F051C061
:1003200041B321E030E0B90102C0660F771F9A9512
:10033000E2F7CB01842B44C0883070F44AB321E04B
:1003400030E0B90102C0660F771F8A95E2F7CB0152
:10035000809584238ABB089598EF980F983070F4A5
:1003600047B321E030E0B90102C0660F771F9A95CC
:10037000E2F7CB018095842387BB089590EF980F17
:10038000983070F444B321E030E0B90102C0660F48
:10039000771F9A95E2F7CB018095842384BB08955B
:1003A00098EE980F983068F441B321E030E0B9013D
:1003B00002C0660F771F9A95E2F7CB0180958423E0
:1003C00081BB0895482F883020F499B3892F90E09D
:1003D00014C088EF840F883010F426B30BC080EF70
:1003E000840F883010F423B305C088EE840F883062
:1003F00058F420B330E0482FC90102C09595879585
:100400004A95E2F78170089580E00895CF93DF93D5
:10041000EC0161E08B810E945A0160E08B81DF91E9
:10042000CF910C94D2002AE630E0FC013183208386
:10043000638312820C940602CF93DF93EC018AE669
:1004400090E09983888360E08B810E945A0160E08C
:100450008B81DF91CF910C94D200CF93DF93EC018D
:1004600061E08B810E94D20081E08A83DF91CF918D
:100470000895CF93DF93EC0160E08B810E94D2005E
:100480001A82DF91CF910895CF93DF93EC0160E062
:100490008A810E945A016B818A810E94D2001C824B
:1004A000DF91CF91089520E730E0FC013183208374
:1004B000628343830C94440220E730E0FC013183E3
:1004C000208360E082810C94D200FC0123812223EE
:1004D00031F082810E94E20191E089270895FC01B8
:1004E00082810C94E2014F925F926F927F928F9281
:1004F0009F92AF92BF92CF92DF92EF92FF920F93B3
:100500001F93CF938C01812C912C540175016401B0
:10051000C8010E946502882351F020E030E040E8E5
:100520005FE3C501B4010E9495044B015C0120E02A
:1005300030E040E251E4C701B6010E94600618169F
:100540000CF5A7019601C501B4010E9406052B0117
:100550003C0120E030E040E45FE30E9460061816B2
:100560000CF43FC0A301920160E070E080E89FE3DB
:100570000E94940420E030E040E45FE30E946006C3
:1005800018168CF120E03CE34CE156E4C701B601BB
:100590000E940105811112C020E03CE34CE156E4C9
:1005A000C501B4010E940605C1E020E030E040E052
:1005B0005FE30E9460061816BCF015C020E030E032
:1005C00040E85FE3C701B6010E9495046B017C011E
:1005D00020E030E44CE156E40E94010587FD98CF0D
:1005E00002C0C1E001C0C0E0F8018481C813C48327
:1005F000F8018481CF911F910F91FF90EF90DF90D0
:10060000CF90BF90AF909F908F907F906F905F90B2
:100610004F90089588E18AB98EE880BD089526E755
:1006200030E0FC013183208310BC69B988E18AB9CC
:100630008EE880BD089526E730E0FC0131832083F9
:100640001AB810BC1CB808955D9BFECF6CB9089514
:100650004F925F926F927F928F929F92AF92BF92D2
:10066000CF92DF92EF92FF92609198007091990083
:10067000645F714080E090E00E94AE054B015C0138
:1006800060919100709192006855724080E090E016
:100690000E94AE056B017C0180918A0090918B00D5
:1006A00088559240BC0180E090E00E94AE052B018D
:1006B0003C01A5019401C501B4010E9465064B01EE
:1006C0005C01A7019601C701B6010E9465069B0166
:1006D000AC01C501B4010E9495046B017C01A3012A
:1006E0009201C301B2010E9465069B01AC01C701E2
:1006F000B6010E9495040E94D8060E947805072E34
:10070000000C880B990B0E94B0056B017C01E894EA
:10071000F7F820E030E04AEF53E4C701B6010E9449
:1007200060061816A4F420E030E44CE156E4C7015A
:10073000B6010E94010587FF0AC080917B0090915D
:100740007C00019690937C0080937B000BC080918D
:10075000790090917A00833391054CF010927C00DF
:1007600010927B0010927A001092790005C00196D9
:1007700090937A00809379008FE790E00E94730253
:10078000882331F01092780084E890E00E943902CA
:1007900080917B0090917C004597C4F084E890E0C4
:1007A0000E942D0281E0809378006EE38DE790E057
:1007B000FF90EF90DF90CF90BF90AF909F908F9081
:1007C0007F906F905F904F900C942403FF90EF9078
:1007D000DF90CF90BF90AF909F908F907F906F9061
:1007E0005F904F90089568E273E086E990E00E9480
:1007F000C10068E273E08FE890E00E94C10068E207
:1008000073E088E890E00E94C10086E990E00E94D1
:100810009F00FFCF1F920F920FB60F9211242F93BC
:100820003F934F935F936F937F938F939F93AF9378
:10083000BF93EF93FF9383EC99E00197F1F700C02A
:10084000000086E990E00E945F00882341F086E97D
:1008500090E00E94C5008FE890E00E949F008FE822
:1008600090E00E945F00882341F08FE890E00E94B2
:10087000C50088E890E00E949F0088E890E00E9410
:100880005F00882341F088E890E00E94C50086E977
:1008900090E00E949F00FF91EF91BF91AF919F91D7
:1008A0008F917F916F915F914F913F912F910F9019
:1008B0000FBE0F901F90189562E086E990E00E94AD
:1008C0007F0061E08FE890E00E947F0060E088E8B0
:1008D00090E00E947F006CE184E890E00E941302A7
:1008E00041E060E18FE790E00E94530260E875E22A
:1008F0008DE790E00C940F038DE790E00E941B03BE
:100900008FE790E00E945C0284E890E00E941C0265
:1009100088E890E00E94AA008FE890E00E94AA0078
:1009200086E990E00C94AA005058BB27AA270E94A1
:10093000AC040C9426060E94180638F00E941F068C
:1009400020F039F49F3F19F426F40C9415060EF4A8
:10095000E095E7FB0C940F06E92F0E94370658F349
:10096000BA17620773078407950720F079F4A6F594
:100970000C9459060EF4E0950B2EBA2FA02D0B0106
:10098000B90190010C01CA01A0011124FF27591BD4
:1009900099F0593F50F4503E68F11A16F040A22FDA
:1009A000232F342F4427585FF3CF4695379527954B
:1009B000A795F0405395C9F77EF41F16BA0B620B4A
:1009C000730B840BBAF09150A1F0FF0FBB1F661F91
:1009D000771F881FC2F70EC0BA0F621F731F841FD4
:1009E00048F4879577956795B795F7959E3F08F0FA
:1009F000B0CF9395880F08F09927EE0F97958795BC
:100A000008950E94EB0508F481E008950E941A05FC
:100A10000C9426060E941F0658F00E94180640F00B
:100A200029F45F3F29F00C940F0651110C945A06DB
:100A30000C9415060E94370668F39923B1F35523E9
:100A400091F3951B550BBB27AA27621773078407E1
:100A500038F09F5F5F4F220F331F441FAA1FA9F377
:100A600035D00E2E3AF0E0E832D091505040E69565
:100A7000001CCAF72BD0FE2F29D0660F771F881FC6
:100A8000BB1F261737074807AB07B0E809F0BB0BB9
:100A9000802DBF01FF2793585F4F3AF09E3F5105CD
:100AA00078F00C940F060C945A065F3FE4F3983EDE
:100AB000D4F3869577956795B795F7959F5FC9F7B6
:100AC000880F911D9695879597F90895E1E0660F37
:100AD000771F881FBB1F621773078407BA0720F0B0
:100AE000621B730B840BBA0BEE1F88F7E095089519
:100AF0000E947F056894B1110C945A0608950E94D3
:100B00003F0688F09F5798F0B92F9927B751B0F05A
:100B1000E1F0660F771F881F991F1AF0BA95C9F781
:100B200014C0B13091F00E945906B1E008950C94C0
:100B30005906672F782F8827B85F39F0B93FCCF373
:100B4000869577956795B395D9F73EF490958095FE
:100B5000709561957F4F8F4F9F4F0895E89409C01E
:100B600097FB3EF490958095709561957F4F8F4FE0
:100B70009F4F9923A9F0F92F96E9BB279395F695F6
:100B8000879577956795B795F111F8CFFAF4BB0F74
:100B900011F460FF1BC06F5F7F4F8F4F9F4F16C0D8
:100BA000882311F096E911C0772321F09EE8872F62
:100BB000762F05C0662371F096E8862F70E060E01E
:100BC0002AF09A95660F771F881FDAF7880F969597
:100BD000879597F90895990F0008550FAA0BE0E83B
:100BE000FEEF16161706E807F907C0F012161306EF
:100BF000E407F50798F0621B730B840B950B39F42F
:100C00000A2661F0232B242B252B21F408950A2694
:100C100009F4A140A6958FEF811D811D089597F9D4
:100C20009F6780E870E060E008959FEF80EC089592
:100C300000240A94161617061806090608950024BB
:100C40000A9412161306140605060895092E039435
:100C5000000C11F4882352F0BB0F40F4BF2B11F4A9
:100C600060FF04C06F5F7F4F8F4F9F4F089557FD08
:100C70009058440F551F59F05F3F71F04795880F0A
:100C800097FB991F61F09F3F79F0879508951216A1
:100C900013061406551FF2CF4695F1DF08C016164D
:100CA00017061806991FF1CF8695710561050894FE
:100CB0000895E894BB2766277727CB0197F9089515
:100CC0000E94EB0508F48FEF08950E9478060C94BB
:100CD00026060E94180638F00E941F0620F0952371
:100CE00011F00C940F060C94150611240C945A065E
:100CF0000E94370670F3959FC1F3950F50E0551F82
:100D0000629FF001729FBB27F00DB11D639FAA2760
:100D1000F00DB11DAA1F649F6627B00DA11D661FAF
:100D2000829F2227B00DA11D621F739FB00DA11DD0
:100D3000621F839FA00D611D221F749F3327A00D8A
:100D4000611D231F849F600D211D822F762F6A2F26
:100D500011249F5750409AF0F1F088234AF0EE0F8B
:100D6000FF1FBB1F661F771F881F91505040A9F7B8
:100D70009E3F510580F00C940F060C945A065F3F7D
:100D8000E4F3983ED4F3869577956795B795F795F4
:100D9000E7959F5FC1F7FE2B880F911D969587956C
:100DA00097F9089519F416F40C9415060C94180785
:100DB0000E943F06B8F39923C9F3B6F39F57550B2A
:100DC00087FF0E9426070024A0E640EA9001805891
:100DD0005695979528F4805C660F771F881F20F042
:100DE00026173707480730F4621B730B840B202942
:100DF00031294A2BA69517940794202531254A2797
:100E000058F7660F771F881F20F026173707480707
:100E100030F4620B730B840B200D311D411DA09526
:100E200081F7B901842F9158880F96958795089579
:100E30009F3F31F0915020F4879577956795B7954E
:100E4000880F911D9695879597F908959150504078
:100E5000660F771F881FD2F70895EE0FFF1F0590CA
:100E6000F491E02D099410E0CBE2D0E004C0FE0143
:100E70000E942D072196CC32D107C9F7F894FFCFF5
:100E80000000000056000000000006020000000004
:080E90004402000000000A0307
:00000001FF
