:100000000C942C000C9454000C9454000C94540048
:100010000C9454000C9454000C9454000C94540010
:100020000C9454000C9454000C9454000C94540000
:100030000C9454000C9454000C9454000C945400F0
:100040000C9464040C9454000C9454000C945400CC
:100050000C945400B604D00411241FBECFE5D8E0A0
:10006000DEBFCDBF10E0A0E6B0E0E4E9FEE002C0F4
:1000700005900D92A837B107D9F720E0A8E7B0E0C6
:1000800001C01D92AF39B207E1F710E0CBE2D0E03A
:1000900004C02197FE010E940207CA32D107C9F7A6
:1000A0000E944D040C943D070C94000027B1207E63
:1000B00027B927B1FC018481822B87B9089527B124
:1000C0002F7130E0FC01448150E081E024173507B6
:1000D00009F080E0089597B19F7397B996B1987F22
:1000E00096B996B1692B66B927B130E4839FC001F8
:1000F0001124822B87B9339A379A78940895FC019A
:100100008CE690E09183808364831382128264E0A2
:1001100083E00C946B00CF93DF93EC010E945F00AF
:10012000882341F024B185B130E0382B3B832A830A
:10013000C90102C08A819B81DF91CF910895DC01C2
:10014000ED91FC910190F081E02D0995369A08958A
:1001500036980895CF93DF93EC018CE690E0998375
:100160008883CE010E945F00882341F087B1807EA2
:1001700087B9CE01DF91CF910C94A800DF91CF9188
:100180000895FC01768365830895CF93DF93EC0196
:100190000E948B00ED81FE816C818A819B81DF91C1
:1001A000CF910994662309F43FC0883060F44BB3C3
:1001B00021E030E0B90102C0660F771F8A95E2F7AF
:1001C000CB01842B3FC098EF980F983060F448B370
:1001D00021E030E0B90102C0660F771F9A95E2F77F
:1001E000CB01842B41C090EF980F983060F445B359
:1001F00021E030E0B90102C0660F771F9A95E2F75F
:10020000CB01842B43C098EE980F983008F051C072
:1002100042B321E030E0B90102C0660F771F9A9522
:10022000E2F7CB01842B44C0883070F44BB321E05B
:1002300030E0B90102C0660F771F8A95E2F7CB0163
:10024000809584238BBB089598EF980F983070F4B5
:1002500048B321E030E0B90102C0660F771F9A95DC
:10026000E2F7CB018095842388BB089590EF980F27
:10027000983070F445B321E030E0B90102C0660F58
:10028000771F9A95E2F7CB018095842385BB08956B
:1002900098EE980F983068F442B321E030E0B9014D
:1002A00002C0660F771F9A95E2F7CB0180958423F1
:1002B00082BB0895662309F43FC0883060F44AB3D6
:1002C00021E030E0B90102C0660F771F8A95E2F79E
:1002D000CB01842B3FC098EF980F983060F447B360
:1002E00021E030E0B90102C0660F771F9A95E2F76E
:1002F000CB01842B41C090EF980F983060F444B349
:1003000021E030E0B90102C0660F771F9A95E2F74D
:10031000CB01842B43C098EE980F983008F051C061
:1003200041B321E030E0B90102C0660F771F9A9512
:10033000E2F7CB01842B44C0883070F44AB321E04B
:1003400030E0B90102C0660F771F8A95E2F7CB0152
:10035000809584238ABB089598EF980F983070F4A5
:1003600047B321E030E0B90102C0660F771F9A95CC
:10037000E2F7CB018095842387BB089590EF980F17
:10038000983070F444B321E030E0B90102C0660F48
:10039000771F9A95E2F7CB018095842384BB08955B
:1003A00098EE980F983068F441B321E030E0B9013D
:1003B00002C0660F771F9A95E2F7CB0180958423E0
:1003C00081BB0895883059F018F4882331F00895DE
:1003D000803139F0883139F008956BBB089568BBDE
:1003E000089565BB089562BB0895883059F018F4EC
:1003F000882331F00895803139F0883139F008953B
:100400006ABB089567BB089564BB089561BB0895F6
:10041000883059F020F4811113C089B309C08031AC
:1004200031F0883169F480B303C086B301C083B36F
:1004300090E002C0959587956A95E2F781700895DE
:1004400080E00895CF93DF93EC0182E790E09983F9
:10045000888360E070E08A810E94F50160E08D8110
:100460000E945A0160E08C810E945A0160E08B81F9
:100470000E945A0160E070E08A810E94E20160E01F
:100480008D810E94D20060E08C810E94D20060E0E9
:100490008B81DF91CF910C94D200CF93DF93EC014D
:1004A00061E08B810E94D2000000000060E08B813F
:1004B000DF91CF910C94D200CF93DF93EC0160E0F9
:1004C00070E08A810E94F50161E08C810E94D20077
:1004D00060E08D810E94D20067E08A810E9408025C
:1004E000811104C0CE010E944D02F6CF6FEF70E083
:1004F0008A81DF91CF910C94F5010F931F93CF93D5
:10050000DF931F92CDB7DEB78C0169830E945C0236
:10051000698170E0F80182810E94E20160E0F801E7
:1005200084810E94D20060E0F80185810E94D2009F
:10053000C8010E944D0260E070E0F80182810F90D6
:10054000DF91CF911F910F910C94E201CF93DF9334
:10055000EC0161E08D810E945A0161E08C810E9472
:100560005A0161E08B810E945A0185EA9EE0019761
:10057000F1F700C0000061E0CE010E947D0283EF30
:1005800091E00197F1F700C0000068E3CE010E94FE
:100590007D0290E19A95F1F700C06CE0CE010E94D7
:1005A0007D0280E18A95F1F700C0DF91CF91089537
:1005B0000F93CF93DF93EC0182E790E099838883D8
:1005C00088E0E0E6F0E0DE01169601900D928A9553
:1005D000E1F76A834D832C830B83CE01DF91CF91AA
:1005E0000F910C94A6026058FA013396EE0FFF1F8C
:1005F000E80FF91F2081620F0C947D020F931F9367
:10060000CF93DF931F92CDB7DEB78C0169830E9431
:100610005C02698170E0F80182810E94E20160E081
:10062000F80184810E94D20061E0F80185810E9476
:10063000D200C8010E944D0260E070E0F8018281A2
:100640000F90DF91CF911F910F910C94E2010F93C6
:100650001F93CF93DF938C01EB016991662321F007
:10066000C8010E94FE02F9CFDF91CF911F910F9137
:1006700008950F931F93CF93DF93EC0189010E949C
:10068000F302B801CE01DF91CF911F910F910C942D
:100690002703CF92DF92EF92FF920F931F93CF9396
:1006A000DF93CDB7DEB764970FB6F894DEBF0FBE09
:1006B000CDBF8C017B016A01C9014AE0BE016F5FB9
:1006C0007F4F0E9408079E012F5F3F4FA601B70191
:1006D000C8010E94390364960FB6F894DEBF0FBEBE
:1006E000CDBFDF91CF911F910F91FF90EF90DF90E1
:1006F000CF9008954F925F926F927F928F929F92C8
:10070000AF92BF92CF92DF92EF92FF929C01611164
:1007100005C040E050E060E070E00DC0613029F4B9
:1007200040E050E065E070E006C0623071F440E007
:1007300050E06AE070E08CE790E00E94490365E7D2
:1007400070E08CE790E00E94270360919A0070911E
:100750009B006855724080E090E00E9483054B0149
:100760005C0160919300709194006855724080E044
:1007700090E00E9483056B017C0180918C00909138
:100780008D0088559240BC0180E090E00E94830576
:100790002B013C01A5019401C501B4010E943A0658
:1007A0004B015C01A7019601C701B6010E943A0600
:1007B0009B01AC01C501B4010E94E1046B017C0105
:1007C000A3019201C301B2010E943A069B01AC0150
:1007D000C701B6010E94E1040E94AD060E944D05CA
:1007E0006B017C01072E000C880B990B0E9485057C
:1007F0009F7720E030E046E953E40E943506181662
:1008000074F480917A0090917B00019690937B0024
:1008100080937A00109279001092780011C0809134
:10082000780090917900833391052CF010927B0031
:1008300010927A0005C00196909379008093780019
:1008400020917A0030917B0041E050E060E070E060
:100850008CE790E00E94490364E770E08CE790E049
:100860000E942703960141E050E06AE070E08CE7C7
:1008700090E00E94490364E770E08CE790E0FF900D
:10088000EF90DF90CF90BF90AF909F908F907F9030
:100890006F905F904F900C9427036AE773E088E9AC
:1008A00090E00E94C1006AE773E081E990E00E9455
:1008B000C1006AE773E08AE890E00E94C10088E91D
:1008C00090E00E949F00FFCF1F920F920FB60F92F1
:1008D00011242F933F934F935F936F937F938F9345
:1008E0009F93AF93BF93EF93FF9383EC99E00197AE
:1008F000F1F700C0000088E990E00E945F008823C3
:1009000041F088E990E00E94C50081E990E00E94F2
:100910009F0081E990E00E945F00882341F081E917
:1009200090E00E94C5008AE890E00E949F008AE85B
:1009300090E00E945F00882341F08AE890E00E94E6
:10094000C50088E990E00E949F00FF91EF91BF9160
:10095000AF919F918F917F916F915F914F913F9157
:100960002F910F900FBE0F901F9018950F9360E07E
:1009700088E990E00E947F0061E081E990E00E94B8
:100980007F0062E08AE890E00E947F000DE12FE1A5
:100990004AE168E08CE790E00E94D8020F91089548
:1009A0008CE790E00E9422028AE890E00E94AA0070
:1009B00081E990E00E94AA0088E990E00C94AA00E6
:1009C0005058BB27AA270E94F8040C94FB050E94EC
:1009D000ED0538F00E94F40520F039F49F3F19F43A
:1009E00026F40C94EA050EF4E095E7FB0C94E4057C
:1009F000E92F0E940C0658F3BA17620773078407A1
:100A0000950720F079F4A6F50C942E060EF4E095E7
:100A10000B2EBA2FA02D0B01B90190010C01CA01B8
:100A2000A0011124FF27591B99F0593F50F4503E63
:100A300068F11A16F040A22F232F342F4427585F55
:100A4000F3CF469537952795A795F0405395C9F76D
:100A50007EF41F16BA0B620B730B840BBAF0915025
:100A6000A1F0FF0FBB1F661F771F881FC2F70EC0C4
:100A7000BA0F621F731F841F48F487957795679597
:100A8000B795F7959E3F08F0B0CF9395880F08F083
:100A90009927EE0F9795879508950E9454056894BD
:100AA000B1110C942F0608950E94140688F09F57E8
:100AB00098F0B92F9927B751B0F0E1F0660F771F82
:100AC000881F991F1AF0BA95C9F714C0B13091F078
:100AD0000E942E06B1E008950C942E06672F782F01
:100AE0008827B85F39F0B93FCCF38695779567953D
:100AF000B395D9F73EF490958095709561957F4FA9
:100B00008F4F9F4F0895E89409C097FB3EF490954E
:100B10008095709561957F4F8F4F9F4F9923A9F0D6
:100B2000F92F96E9BB279395F69587957795679565
:100B3000B795F111F8CFFAF4BB0F11F460FF1BC0A9
:100B40006F5F7F4F8F4F9F4F16C0882311F096E93C
:100B500011C0772321F09EE8872F762F05C06623EA
:100B600071F096E8862F70E060E02AF09A95660FA3
:100B7000771F881FDAF7880F9695879597F908955C
:100B8000990F0008550FAA0BE0E8FEEF161617069E
:100B9000E807F907C0F012161306E407F50798F006
:100BA000621B730B840B950B39F40A2661F0232B1F
:100BB000242B252B21F408950A2609F4A140A6959B
:100BC0008FEF811D811D089597F99F6780E870E080
:100BD00060E008959FEF80EC089500240A941616B3
:100BE000170618060906089500240A94121613061B
:100BF000140605060895092E0394000C11F48823A9
:100C000052F0BB0F40F4BF2B11F460FF04C06F5FC4
:100C10007F4F8F4F9F4F089557FD9058440F551F9A
:100C200059F05F3F71F04795880F97FB991F61F06E
:100C30009F3F79F087950895121613061406551FE5
:100C4000F2CF4695F1DF08C0161617061806991F51
:100C5000F1CF86957105610508940895E894BB2746
:100C600066277727CB0197F908950E94C00508F4FD
:100C70008FEF08950E944D060C94FB050E94ED0530
:100C800038F00E94F40520F0952311F00C94E4054F
:100C90000C94EA0511240C942F060E940C0670F3A4
:100CA000959FC1F3950F50E0551F629FF001729F11
:100CB000BB27F00DB11D639FAA27F00DB11DAA1F20
:100CC000649F6627B00DA11D661F829F2227B00D6D
:100CD000A11D621F739FB00DA11D621F839FA00DF8
:100CE000611D221F749F3327A00D611D231F849F48
:100CF000600D211D822F762F6A2F11249F5750409F
:100D00009AF0F1F088234AF0EE0FFF1FBB1F661F19
:100D1000771F881F91505040A9F79E3F510580F0E2
:100D20000C94E4050C942F065F3FE4F3983ED4F353
:100D3000869577956795B795F795E7959F5FC1F786
:100D4000FE2B880F911D9695879597F9089519F4B4
:100D500016F40C94EA050C94ED060E941406B8F300
:100D60009923C9F3B6F39F57550B87FF0E94FB06E3
:100D70000024A0E640EA900180585695979528F403
:100D8000805C660F771F881F20F0261737074807FB
:100D900030F4621B730B840B202931294A2BA69552
:100DA00017940794202531254A2758F7660F771F97
:100DB000881F20F026173707480730F4620B730BA3
:100DC000840B200D311D411DA09581F7B901842FA1
:100DD0009158880F9695879508959F3F31F09150CF
:100DE00020F4879577956795B795880F911D96950F
:100DF000879597F9089591505040660F771F881F87
:100E0000D2F70895EE0FFF1F0590F491E02D09949D
:100E1000BB274A3031F4992322F4BDE290958195A5
:100E20009F4F0C941407BB27FB015527AA27880F57
:100E3000991FAA1FA41710F0A41B83955051B9F74E
:100E4000A05DAA3308F0A95DA193009779F7B111CD
:100E5000B1931192CB010C942D07DC01FC01672F9B
:100E600071917723E1F7329704C07C916D93708381
:100E70006291AE17BF07C8F3089510E0CBE2D0E04F
:100E800004C0FE010E9402072196CC32D107C9F7A7
:040E9000F894FFCF04
:100E94000000400014005400000000005600000050
:080EA4000000A602202000005E
:00000001FF
