S01A00004865616C7468416363656C65726174696F6E2E73726563EA
S11300000C942A000C943F000C943F000C943F0085
S11300100C943F000C943F000C943F000C943F0060
S11300200C943F000C943F000C943F000C943F0050
S11300300C943F000C943F000C943F000C943F0040
S11300400C943F000C943F000C943F000C943F0030
S11300500C943F0011241FBECFE5D8E0DEBFCDBF16
S113006010E0A0E6B0E0E2E7F6E002C005900D92F1
S1130070AE3AB107D9F70E94E0020C9437030C940E
S11300800000662309F43FC0883060F44BB321E0DC
S113009030E0B90102C0660F771F8A95E2F7CB0101
S11300A0842B3FC098EF980F983060F448B321E058
S11300B030E0B90102C0660F771F9A95E2F7CB01D1
S11300C0842B41C090EF980F983060F445B321E041
S11300D030E0B90102C0660F771F9A95E2F7CB01B1
S11300E0842B43C098EE980F983008F051C042B367
S11300F021E030E0B90102C0660F771F9A95E2F75C
S1130100CB01842B44C0883070F44BB321E030E041
S1130110B90102C0660F771F8A95E2F7CB0180957B
S113012084238BBB089598EF980F983070F448B3EC
S113013021E030E0B90102C0660F771F9A95E2F71B
S1130140CB018095842388BB089590EF980F983055
S113015070F445B321E030E0B90102C0660F771FA7
S11301609A95E2F7CB018095842385BB089598EE98
S1130170980F983068F442B321E030E0B90102C02E
S1130180660F771F9A95E2F7CB018095842382BB93
S11301900895662309F43FC0883060F44AB321E02F
S11301A030E0B90102C0660F771F8A95E2F7CB01F0
S11301B0842B3FC098EF980F983060F447B321E048
S11301C030E0B90102C0660F771F9A95E2F7CB01C0
S11301D0842B41C090EF980F983060F444B321E031
S11301E030E0B90102C0660F771F9A95E2F7CB01A0
S11301F0842B43C098EE980F983008F051C041B357
S113020021E030E0B90102C0660F771F9A95E2F74A
S1130210CB01842B44C0883070F44AB321E030E031
S1130220B90102C0660F771F8A95E2F7CB0180956A
S113023084238ABB089598EF980F983070F447B3DD
S113024021E030E0B90102C0660F771F9A95E2F70A
S1130250CB018095842387BB089590EF980F983045
S113026070F444B321E030E0B90102C0660F771F97
S11302709A95E2F7CB018095842384BB089598EE88
S1130280980F983068F441B321E030E0B90102C01E
S1130290660F771F9A95E2F7CB018095842381BB83
S11302A00895883059F018F4882331F00895803186
S11302B039F0883139F008956BBB089568BB08950F
S11302C065BB089562BB0895883059F018F48823FB
S11302D031F00895803139F0883139F008956ABBDE
S11302E0089567BB089564BB089561BB0895883081
S11302F059F020F4811113C089B309C0803131F061
S1130300883169F480B303C086B301C083B390E03D
S113031002C0959587956A95E2F78170089580E00B
S11303200895CF93DF93EC0161E08B810E94C900B3
S113033060E08B81DF91CF910C9441002CE630E09A
S1130340FC0131832083638312820C949101CF9347
S1130350DF93EC0161E08B810E94410081E08A839C
S1130360DF91CF910895CF93DF93EC0160E08B810F
S11303700E9441001A82DF91CF910895CF93DF93B9
S1130380EC018A81811104C0CE010E94A70103C03F
S1130390CE010E94B3018A81DF91CF910895CF935A
S11303A0DF93EC0161E08B810E94410000000000BA
S11303B060E08B81DF91CF910C944100CF93DF9368
S11303C0EC0160E070E08A810E94640161E08C814C
S11303D00E94410060E08D810E94410067E08A81B3
S11303E00E947701811104C0CE010E94CF01F6CF93
S11303F06FEF70E08A81DF91CF910C9464010F93C9
S11304001F93CF93DF931F92CDB7DEB78C0169831F
S11304100E94DE01698170E0F80182810E9451012D
S113042060E0F80184810E94410060E0F801858168
S11304300E944100C8010E94CF0160E070E0F80111
S113044082810F90DF91CF911F910F910C945101F4
S1130450CF93DF93EC0161E08D810E94C90061E0DC
S11304608C810E94C90061E08B810E94C90085EAE9
S11304709EE00197F1F700C0000061E0CE010E9408
S1130480FF0183EF91E00197F1F700C0000068E3FA
S1130490CE010E94FF0190E19A95F1F700C06CE053
S11304A0CE010E94FF0180E18A95F1F700C0DF913F
S11304B0CF9108950F93CF93DF93EC0182E790E0FF
S11304C09983888388E0E0E6F0E0DE0116960190E7
S11304D00D928A95E1F76A834D832C830B83CE01B9
S11304E0DF91CF910F910C9428026058FA01339652
S11304F0EE0FFF1FE80FF91F2081620F0C94FF011C
S11305000F931F93CF93DF931F92CDB7DEB78C0168
S113051069830E94DE01698170E0F80182810E9492
S1130520510160E0F80184810E94410061E0F8011A
S113053085810E944100C8010E94CF0160E070E003
S1130540F80182810F90DF91CF911F910F910C944C
S113055051010F931F93CF93DF938C01EB016991AA
S1130560662321F0C8010E948002F9CFDF91CF9168
S11305701F910F9108950F931F93CF93DF93EC0175
S113058089010E947502B801CE01DF91CF911F91BC
S11305900F910C94A90288E18AB98EE880BD089570
S11305A028E730E0FC013183208310BC69B988E17D
S11305B08AB98EE880BD08955F9BFECF8CB1089503
S11305C0CF93DF93CDB7DEB764970FB6F894DEBF51
S11305D00FBECDBF0DE12FE14AE168E0CE010196E7
S11305E00E945A0260E875E2CE0143960E94D0024E
S11305F060E1CE010F960E949E0100E010E0CE0162
S113060043960E94DC028530A1F42AE730E040E002
S113061050E060E070E0CE0101960E94BB020B3016
S1130620110524F0CE010F960E94BE010F5F1F4FEB
S113063017C0CE0143960E94DC02803A19F42BE8DD
S113064030E002C02CE930E040E050E060E070E0CF
S1130650CE0101960E94BB02CE010F960E94B30107
S113066087EA91E60197F1F700C00000C8CFF8943B
S1050670FFCFB6
S1130672000040001400540000000000910100003A
S11306820000280200000000CB02456D6572676518
S11306926E637920416C6572742100546F74616CCD
S11306A26C7920536166652E2020200049742061F4
S11106B26C6C206C6F6F6B73204F4B2E00002E
S9030000FC
